{
    "abi": [
        {
            "type": "constructor",
            "inputs": [
                {
                    "name": "initialOwner",
                    "type": "address",
                    "internalType": "address"
                }
            ],
            "stateMutability": "nonpayable"
        },
        {
            "type": "function",
            "name": "approve",
            "inputs": [
                {
                    "name": "to",
                    "type": "address",
                    "internalType": "address"
                },
                {
                    "name": "tokenId",
                    "type": "uint256",
                    "internalType": "uint256"
                }
            ],
            "outputs": [],
            "stateMutability": "nonpayable"
        },
        {
            "type": "function",
            "name": "balanceOf",
            "inputs": [
                {
                    "name": "owner",
                    "type": "address",
                    "internalType": "address"
                }
            ],
            "outputs": [
                {
                    "name": "",
                    "type": "uint256",
                    "internalType": "uint256"
                }
            ],
            "stateMutability": "view"
        },
        {
            "type": "function",
            "name": "getApproved",
            "inputs": [
                {
                    "name": "tokenId",
                    "type": "uint256",
                    "internalType": "uint256"
                }
            ],
            "outputs": [
                {
                    "name": "",
                    "type": "address",
                    "internalType": "address"
                }
            ],
            "stateMutability": "view"
        },
        {
            "type": "function",
            "name": "isApprovedForAll",
            "inputs": [
                {
                    "name": "owner",
                    "type": "address",
                    "internalType": "address"
                },
                {
                    "name": "operator",
                    "type": "address",
                    "internalType": "address"
                }
            ],
            "outputs": [
                {
                    "name": "",
                    "type": "bool",
                    "internalType": "bool"
                }
            ],
            "stateMutability": "view"
        },
        {
            "type": "function",
            "name": "mint",
            "inputs": [
                {
                    "name": "to",
                    "type": "address",
                    "internalType": "address"
                },
                {
                    "name": "tokenId",
                    "type": "uint256",
                    "internalType": "uint256"
                },
                {
                    "name": "uri",
                    "type": "string",
                    "internalType": "string"
                }
            ],
            "outputs": [],
            "stateMutability": "nonpayable"
        },
        {
            "type": "function",
            "name": "name",
            "inputs": [],
            "outputs": [
                {
                    "name": "",
                    "type": "string",
                    "internalType": "string"
                }
            ],
            "stateMutability": "view"
        },
        {
            "type": "function",
            "name": "owner",
            "inputs": [],
            "outputs": [
                {
                    "name": "",
                    "type": "address",
                    "internalType": "address"
                }
            ],
            "stateMutability": "view"
        },
        {
            "type": "function",
            "name": "ownerOf",
            "inputs": [
                {
                    "name": "tokenId",
                    "type": "uint256",
                    "internalType": "uint256"
                }
            ],
            "outputs": [
                {
                    "name": "",
                    "type": "address",
                    "internalType": "address"
                }
            ],
            "stateMutability": "view"
        },
        {
            "type": "function",
            "name": "renounceOwnership",
            "inputs": [],
            "outputs": [],
            "stateMutability": "nonpayable"
        },
        {
            "type": "function",
            "name": "safeTransferFrom",
            "inputs": [
                {
                    "name": "from",
                    "type": "address",
                    "internalType": "address"
                },
                {
                    "name": "to",
                    "type": "address",
                    "internalType": "address"
                },
                {
                    "name": "tokenId",
                    "type": "uint256",
                    "internalType": "uint256"
                }
            ],
            "outputs": [],
            "stateMutability": "nonpayable"
        },
        {
            "type": "function",
            "name": "safeTransferFrom",
            "inputs": [
                {
                    "name": "from",
                    "type": "address",
                    "internalType": "address"
                },
                {
                    "name": "to",
                    "type": "address",
                    "internalType": "address"
                },
                {
                    "name": "tokenId",
                    "type": "uint256",
                    "internalType": "uint256"
                },
                {
                    "name": "data",
                    "type": "bytes",
                    "internalType": "bytes"
                }
            ],
            "outputs": [],
            "stateMutability": "nonpayable"
        },
        {
            "type": "function",
            "name": "setApprovalForAll",
            "inputs": [
                {
                    "name": "operator",
                    "type": "address",
                    "internalType": "address"
                },
                {
                    "name": "approved",
                    "type": "bool",
                    "internalType": "bool"
                }
            ],
            "outputs": [],
            "stateMutability": "nonpayable"
        },
        {
            "type": "function",
            "name": "supportsInterface",
            "inputs": [
                {
                    "name": "interfaceId",
                    "type": "bytes4",
                    "internalType": "bytes4"
                }
            ],
            "outputs": [
                {
                    "name": "",
                    "type": "bool",
                    "internalType": "bool"
                }
            ],
            "stateMutability": "view"
        },
        {
            "type": "function",
            "name": "symbol",
            "inputs": [],
            "outputs": [
                {
                    "name": "",
                    "type": "string",
                    "internalType": "string"
                }
            ],
            "stateMutability": "view"
        },
        {
            "type": "function",
            "name": "tokenByIndex",
            "inputs": [
                {
                    "name": "index",
                    "type": "uint256",
                    "internalType": "uint256"
                }
            ],
            "outputs": [
                {
                    "name": "",
                    "type": "uint256",
                    "internalType": "uint256"
                }
            ],
            "stateMutability": "view"
        },
        {
            "type": "function",
            "name": "tokenOfOwnerByIndex",
            "inputs": [
                {
                    "name": "owner",
                    "type": "address",
                    "internalType": "address"
                },
                {
                    "name": "index",
                    "type": "uint256",
                    "internalType": "uint256"
                }
            ],
            "outputs": [
                {
                    "name": "",
                    "type": "uint256",
                    "internalType": "uint256"
                }
            ],
            "stateMutability": "view"
        },
        {
            "type": "function",
            "name": "tokenURI",
            "inputs": [
                {
                    "name": "tokenId",
                    "type": "uint256",
                    "internalType": "uint256"
                }
            ],
            "outputs": [
                {
                    "name": "",
                    "type": "string",
                    "internalType": "string"
                }
            ],
            "stateMutability": "view"
        },
        {
            "type": "function",
            "name": "totalSupply",
            "inputs": [],
            "outputs": [
                {
                    "name": "",
                    "type": "uint256",
                    "internalType": "uint256"
                }
            ],
            "stateMutability": "view"
        },
        {
            "type": "function",
            "name": "transferFrom",
            "inputs": [
                {
                    "name": "from",
                    "type": "address",
                    "internalType": "address"
                },
                {
                    "name": "to",
                    "type": "address",
                    "internalType": "address"
                },
                {
                    "name": "tokenId",
                    "type": "uint256",
                    "internalType": "uint256"
                }
            ],
            "outputs": [],
            "stateMutability": "nonpayable"
        },
        {
            "type": "function",
            "name": "transferOwnership",
            "inputs": [
                {
                    "name": "newOwner",
                    "type": "address",
                    "internalType": "address"
                }
            ],
            "outputs": [],
            "stateMutability": "nonpayable"
        },
        {
            "type": "event",
            "name": "Approval",
            "inputs": [
                {
                    "name": "owner",
                    "type": "address",
                    "indexed": true,
                    "internalType": "address"
                },
                {
                    "name": "approved",
                    "type": "address",
                    "indexed": true,
                    "internalType": "address"
                },
                {
                    "name": "tokenId",
                    "type": "uint256",
                    "indexed": true,
                    "internalType": "uint256"
                }
            ],
            "anonymous": false
        },
        {
            "type": "event",
            "name": "ApprovalForAll",
            "inputs": [
                {
                    "name": "owner",
                    "type": "address",
                    "indexed": true,
                    "internalType": "address"
                },
                {
                    "name": "operator",
                    "type": "address",
                    "indexed": true,
                    "internalType": "address"
                },
                {
                    "name": "approved",
                    "type": "bool",
                    "indexed": false,
                    "internalType": "bool"
                }
            ],
            "anonymous": false
        },
        {
            "type": "event",
            "name": "BatchMetadataUpdate",
            "inputs": [
                {
                    "name": "_fromTokenId",
                    "type": "uint256",
                    "indexed": false,
                    "internalType": "uint256"
                },
                {
                    "name": "_toTokenId",
                    "type": "uint256",
                    "indexed": false,
                    "internalType": "uint256"
                }
            ],
            "anonymous": false
        },
        {
            "type": "event",
            "name": "MetadataUpdate",
            "inputs": [
                {
                    "name": "_tokenId",
                    "type": "uint256",
                    "indexed": false,
                    "internalType": "uint256"
                }
            ],
            "anonymous": false
        },
        {
            "type": "event",
            "name": "OwnershipTransferred",
            "inputs": [
                {
                    "name": "previousOwner",
                    "type": "address",
                    "indexed": true,
                    "internalType": "address"
                },
                {
                    "name": "newOwner",
                    "type": "address",
                    "indexed": true,
                    "internalType": "address"
                }
            ],
            "anonymous": false
        },
        {
            "type": "event",
            "name": "Transfer",
            "inputs": [
                {
                    "name": "from",
                    "type": "address",
                    "indexed": true,
                    "internalType": "address"
                },
                {
                    "name": "to",
                    "type": "address",
                    "indexed": true,
                    "internalType": "address"
                },
                {
                    "name": "tokenId",
                    "type": "uint256",
                    "indexed": true,
                    "internalType": "uint256"
                }
            ],
            "anonymous": false
        },
        {
            "type": "error",
            "name": "ERC721EnumerableForbiddenBatchMint",
            "inputs": []
        },
        {
            "type": "error",
            "name": "ERC721IncorrectOwner",
            "inputs": [
                {
                    "name": "sender",
                    "type": "address",
                    "internalType": "address"
                },
                {
                    "name": "tokenId",
                    "type": "uint256",
                    "internalType": "uint256"
                },
                {
                    "name": "owner",
                    "type": "address",
                    "internalType": "address"
                }
            ]
        },
        {
            "type": "error",
            "name": "ERC721InsufficientApproval",
            "inputs": [
                {
                    "name": "operator",
                    "type": "address",
                    "internalType": "address"
                },
                {
                    "name": "tokenId",
                    "type": "uint256",
                    "internalType": "uint256"
                }
            ]
        },
        {
            "type": "error",
            "name": "ERC721InvalidApprover",
            "inputs": [
                {
                    "name": "approver",
                    "type": "address",
                    "internalType": "address"
                }
            ]
        },
        {
            "type": "error",
            "name": "ERC721InvalidOperator",
            "inputs": [
                {
                    "name": "operator",
                    "type": "address",
                    "internalType": "address"
                }
            ]
        },
        {
            "type": "error",
            "name": "ERC721InvalidOwner",
            "inputs": [
                {
                    "name": "owner",
                    "type": "address",
                    "internalType": "address"
                }
            ]
        },
        {
            "type": "error",
            "name": "ERC721InvalidReceiver",
            "inputs": [
                {
                    "name": "receiver",
                    "type": "address",
                    "internalType": "address"
                }
            ]
        },
        {
            "type": "error",
            "name": "ERC721InvalidSender",
            "inputs": [
                {
                    "name": "sender",
                    "type": "address",
                    "internalType": "address"
                }
            ]
        },
        {
            "type": "error",
            "name": "ERC721NonexistentToken",
            "inputs": [
                {
                    "name": "tokenId",
                    "type": "uint256",
                    "internalType": "uint256"
                }
            ]
        },
        {
            "type": "error",
            "name": "ERC721OutOfBoundsIndex",
            "inputs": [
                {
                    "name": "owner",
                    "type": "address",
                    "internalType": "address"
                },
                {
                    "name": "index",
                    "type": "uint256",
                    "internalType": "uint256"
                }
            ]
        },
        {
            "type": "error",
            "name": "OwnableInvalidOwner",
            "inputs": [
                {
                    "name": "owner",
                    "type": "address",
                    "internalType": "address"
                }
            ]
        },
        {
            "type": "error",
            "name": "OwnableUnauthorizedAccount",
            "inputs": [
                {
                    "name": "account",
                    "type": "address",
                    "internalType": "address"
                }
            ]
        }
    ],
    "bytecode": {
        "object": "0x608060405234801561001057600080fd5b50604051611a63380380611a6383398101604081905261002f9161011f565b806040518060400160405280600881526020016754757266426f6f6b60c01b815250604051806040016040528060068152602001650a8aaa48ca6b60d31b815250816000908161007f91906101f0565b50600161008c82826101f0565b5050506001600160a01b0381166100bd57604051631e4fbdf760e01b81526000600482015260240160405180910390fd5b6100c6816100cd565b50506102af565b600780546001600160a01b038381166001600160a01b0319831681179093556040519116919082907f8be0079c531659141344cd1fd0a4f28419497f9722a3daafe3b4186f6b6457e090600090a35050565b60006020828403121561013157600080fd5b81516001600160a01b038116811461014857600080fd5b9392505050565b634e487b7160e01b600052604160045260246000fd5b600181811c9082168061017957607f821691505b60208210810361019957634e487b7160e01b600052602260045260246000fd5b50919050565b601f8211156101eb576000816000526020600020601f850160051c810160208610156101c85750805b601f850160051c820191505b818110156101e7578281556001016101d4565b5050505b505050565b81516001600160401b038111156102095761020961014f565b61021d816102178454610165565b8461019f565b602080601f831160018114610252576000841561023a5750858301515b600019600386901b1c1916600185901b1785556101e7565b600085815260208120601f198616915b8281101561028157888601518255948401946001909101908401610262565b508582101561029f5787850151600019600388901b60f8161c191681555b5050505050600190811b01905550565b6117a5806102be6000396000f3fe608060405234801561001057600080fd5b506004361061012c5760003560e01c806370a08231116100ad578063b88d4fde11610071578063b88d4fde14610266578063c87b56dd14610279578063d3fc98641461028c578063e985e9c51461029f578063f2fde38b146102b257600080fd5b806370a082311461021f578063715018a6146102325780638da5cb5b1461023a57806395d89b411461024b578063a22cb4651461025357600080fd5b806323b872dd116100f457806323b872dd146101c05780632f745c59146101d357806342842e0e146101e65780634f6ccce7146101f95780636352211e1461020c57600080fd5b806301ffc9a71461013157806306fdde0314610159578063081812fc1461016e578063095ea7b31461019957806318160ddd146101ae575b600080fd5b61014461013f36600461123f565b6102c5565b60405190151581526020015b60405180910390f35b6101616102d6565b60405161015091906112ac565b61018161017c3660046112bf565b610368565b6040516001600160a01b039091168152602001610150565b6101ac6101a73660046112f4565b610391565b005b600a545b604051908152602001610150565b6101ac6101ce36600461131e565b6103a0565b6101b26101e13660046112f4565b610430565b6101ac6101f436600461131e565b610495565b6101b26102073660046112bf565b6104b5565b61018161021a3660046112bf565b61050e565b6101b261022d36600461135a565b610519565b6101ac610561565b6007546001600160a01b0316610181565b610161610575565b6101ac610261366004611375565b610584565b6101ac61027436600461143d565b61058f565b6101616102873660046112bf565b6105a7565b6101ac61029a3660046114b9565b6105b2565b6101446102ad366004611524565b6105ce565b6101ac6102c036600461135a565b6105fc565b60006102d08261063a565b92915050565b6060600080546102e590611557565b80601f016020809104026020016040519081016040528092919081815260200182805461031190611557565b801561035e5780601f106103335761010080835404028352916020019161035e565b820191906000526020600020905b81548152906001019060200180831161034157829003601f168201915b5050505050905090565b60006103738261065f565b506000828152600460205260409020546001600160a01b03166102d0565b61039c828233610698565b5050565b6001600160a01b0382166103cf57604051633250574960e11b8152600060048201526024015b60405180910390fd5b60006103dc8383336106a5565b9050836001600160a01b0316816001600160a01b03161461042a576040516364283d7b60e01b81526001600160a01b03808616600483015260248201849052821660448201526064016103c6565b50505050565b600061043b83610519565b821061046c5760405163295f44f760e21b81526001600160a01b0384166004820152602481018390526044016103c6565b506001600160a01b03919091166000908152600860209081526040808320938352929052205490565b6104b08383836040518060200160405280600081525061058f565b505050565b60006104c0600a5490565b82106104e95760405163295f44f760e21b815260006004820152602481018390526044016103c6565b600a82815481106104fc576104fc611591565b90600052602060002001549050919050565b60006102d08261065f565b60006001600160a01b038216610545576040516322718ad960e21b8152600060048201526024016103c6565b506001600160a01b031660009081526003602052604090205490565b6105696106ba565b61057360006106e7565b565b6060600180546102e590611557565b61039c338383610739565b61059a8484846103a0565b61042a33858585856107d8565b60606102d082610903565b6105ba6106ba565b6105c48383610a0c565b6104b08282610a71565b6001600160a01b03918216600090815260056020908152604080832093909416825291909152205460ff1690565b6106046106ba565b6001600160a01b03811661062e57604051631e4fbdf760e01b8152600060048201526024016103c6565b610637816106e7565b50565b60006001600160e01b0319821663780e9d6360e01b14806102d057506102d082610ac1565b6000818152600260205260408120546001600160a01b0316806102d057604051637e27328960e01b8152600481018490526024016103c6565b6104b08383836001610ae6565b60006106b2848484610bec565b949350505050565b6007546001600160a01b031633146105735760405163118cdaa760e01b81523360048201526024016103c6565b600780546001600160a01b038381166001600160a01b0319831681179093556040519116919082907f8be0079c531659141344cd1fd0a4f28419497f9722a3daafe3b4186f6b6457e090600090a35050565b6001600160a01b03821661076b57604051630b61174360e31b81526001600160a01b03831660048201526024016103c6565b6001600160a01b03838116600081815260056020908152604080832094871680845294825291829020805460ff191686151590811790915591519182527f17307eab39ab6107e8899845ad3d59bd9653f200f220920489ca2b5937696c31910160405180910390a3505050565b6001600160a01b0383163b156108fc57604051630a85bd0160e11b81526001600160a01b0384169063150b7a029061081a9088908890879087906004016115a7565b6020604051808303816000875af1925050508015610855575060408051601f3d908101601f19168201909252610852918101906115e4565b60015b6108be573d808015610883576040519150601f19603f3d011682016040523d82523d6000602084013e610888565b606091505b5080516000036108b657604051633250574960e11b81526001600160a01b03851660048201526024016103c6565b805181602001fd5b6001600160e01b03198116630a85bd0160e11b146108fa57604051633250574960e11b81526001600160a01b03851660048201526024016103c6565b505b5050505050565b606061090e8261065f565b506000828152600660205260408120805461092890611557565b80601f016020809104026020016040519081016040528092919081815260200182805461095490611557565b80156109a15780601f10610976576101008083540402835291602001916109a1565b820191906000526020600020905b81548152906001019060200180831161098457829003601f168201915b5050505050905060006109bf60408051602081019091526000815290565b905080516000036109d1575092915050565b815115610a035780826040516020016109eb929190611601565b60405160208183030381529060405292505050919050565b6106b284610cb9565b6001600160a01b038216610a3657604051633250574960e11b8152600060048201526024016103c6565b6000610a44838360006106a5565b90506001600160a01b038116156104b0576040516339e3563760e11b8152600060048201526024016103c6565b6000828152600660205260409020610a898282611678565b506040518281527ff8e1a15aba9398e019f0b49df1a4fde98ee17ae345cb5f6b5e2c27f5033e8ce79060200160405180910390a15050565b60006001600160e01b03198216632483248360e11b14806102d057506102d082610d2e565b8080610afa57506001600160a01b03821615155b15610bbc576000610b0a8461065f565b90506001600160a01b03831615801590610b365750826001600160a01b0316816001600160a01b031614155b8015610b495750610b4781846105ce565b155b15610b725760405163a9fbf51f60e01b81526001600160a01b03841660048201526024016103c6565b8115610bba5783856001600160a01b0316826001600160a01b03167f8c5be1e5ebec7d5bd14f71427d1e84f3dd0314c0f7b2291e5b200ac8c7c3b92560405160405180910390a45b505b5050600090815260046020526040902080546001600160a01b0319166001600160a01b0392909216919091179055565b600080610bfa858585610d7e565b90506001600160a01b038116610c5757610c5284600a80546000838152600b60205260408120829055600182018355919091527fc65a7bb8d6351c1cf70c95a316cc6a92839c986682d98bc35f958f4883f9d2a80155565b610c7a565b846001600160a01b0316816001600160a01b031614610c7a57610c7a8185610e77565b6001600160a01b038516610c9657610c9184610ef8565b6106b2565b846001600160a01b0316816001600160a01b0316146106b2576106b28585610fa7565b6060610cc48261065f565b506000610cdc60408051602081019091526000815290565b90506000815111610cfc5760405180602001604052806000815250610d27565b80610d0684610ff7565b604051602001610d17929190611601565b6040516020818303038152906040525b9392505050565b60006001600160e01b031982166380ac58cd60e01b1480610d5f57506001600160e01b03198216635b5e139f60e01b145b806102d057506301ffc9a760e01b6001600160e01b03198316146102d0565b6000828152600260205260408120546001600160a01b0390811690831615610dab57610dab81848661108a565b6001600160a01b03811615610de957610dc8600085600080610ae6565b6001600160a01b038116600090815260036020526040902080546000190190555b6001600160a01b03851615610e18576001600160a01b0385166000908152600360205260409020805460010190555b60008481526002602052604080822080546001600160a01b0319166001600160a01b0389811691821790925591518793918516917fddf252ad1be2c89b69c2b068fc378daa952ba7f163c4a11628f55a4df523b3ef91a4949350505050565b6000610e8283610519565b6000838152600960209081526040808320546001600160a01b0388168452600890925290912091925090818314610ed957600083815260208281526040808320548584528184208190558352600990915290208290555b6000938452600960209081526040808620869055938552525081205550565b600a54600090610f0a90600190611738565b6000838152600b6020526040812054600a8054939450909284908110610f3257610f32611591565b9060005260206000200154905080600a8381548110610f5357610f53611591565b6000918252602080832090910192909255828152600b9091526040808220849055858252812055600a805480610f8b57610f8b611759565b6001900381819060005260206000200160009055905550505050565b60006001610fb484610519565b610fbe9190611738565b6001600160a01b039093166000908152600860209081526040808320868452825280832085905593825260099052919091209190915550565b60606000611004836110ee565b600101905060008167ffffffffffffffff811115611024576110246113b1565b6040519080825280601f01601f19166020018201604052801561104e576020820181803683370190505b5090508181016020015b600019016f181899199a1a9b1b9c1cb0b131b232b360811b600a86061a8153600a850494508461105857509392505050565b6110958383836111c6565b6104b0576001600160a01b0383166110c357604051637e27328960e01b8152600481018290526024016103c6565b60405163177e802f60e01b81526001600160a01b0383166004820152602481018290526044016103c6565b60008072184f03e93ff9f4daa797ed6e38ed64bf6a1f0160401b831061112d5772184f03e93ff9f4daa797ed6e38ed64bf6a1f0160401b830492506040015b6d04ee2d6d415b85acef81000000008310611159576d04ee2d6d415b85acef8100000000830492506020015b662386f26fc10000831061117757662386f26fc10000830492506010015b6305f5e100831061118f576305f5e100830492506008015b61271083106111a357612710830492506004015b606483106111b5576064830492506002015b600a83106102d05760010192915050565b60006001600160a01b038316158015906106b25750826001600160a01b0316846001600160a01b03161480611200575061120084846105ce565b806106b25750506000908152600460205260409020546001600160a01b03908116911614919050565b6001600160e01b03198116811461063757600080fd5b60006020828403121561125157600080fd5b8135610d2781611229565b60005b8381101561127757818101518382015260200161125f565b50506000910152565b6000815180845261129881602086016020860161125c565b601f01601f19169290920160200192915050565b602081526000610d276020830184611280565b6000602082840312156112d157600080fd5b5035919050565b80356001600160a01b03811681146112ef57600080fd5b919050565b6000806040838503121561130757600080fd5b611310836112d8565b946020939093013593505050565b60008060006060848603121561133357600080fd5b61133c846112d8565b925061134a602085016112d8565b9150604084013590509250925092565b60006020828403121561136c57600080fd5b610d27826112d8565b6000806040838503121561138857600080fd5b611391836112d8565b9150602083013580151581146113a657600080fd5b809150509250929050565b634e487b7160e01b600052604160045260246000fd5b600067ffffffffffffffff808411156113e2576113e26113b1565b604051601f8501601f19908116603f0116810190828211818310171561140a5761140a6113b1565b8160405280935085815286868601111561142357600080fd5b858560208301376000602087830101525050509392505050565b6000806000806080858703121561145357600080fd5b61145c856112d8565b935061146a602086016112d8565b925060408501359150606085013567ffffffffffffffff81111561148d57600080fd5b8501601f8101871361149e57600080fd5b6114ad878235602084016113c7565b91505092959194509250565b6000806000606084860312156114ce57600080fd5b6114d7846112d8565b925060208401359150604084013567ffffffffffffffff8111156114fa57600080fd5b8401601f8101861361150b57600080fd5b61151a868235602084016113c7565b9150509250925092565b6000806040838503121561153757600080fd5b611540836112d8565b915061154e602084016112d8565b90509250929050565b600181811c9082168061156b57607f821691505b60208210810361158b57634e487b7160e01b600052602260045260246000fd5b50919050565b634e487b7160e01b600052603260045260246000fd5b6001600160a01b03858116825284166020820152604081018390526080606082018190526000906115da90830184611280565b9695505050505050565b6000602082840312156115f657600080fd5b8151610d2781611229565b6000835161161381846020880161125c565b83519083019061162781836020880161125c565b01949350505050565b601f8211156104b0576000816000526020600020601f850160051c810160208610156116595750805b601f850160051c820191505b818110156108fa57828155600101611665565b815167ffffffffffffffff811115611692576116926113b1565b6116a6816116a08454611557565b84611630565b602080601f8311600181146116db57600084156116c35750858301515b600019600386901b1c1916600185901b1785556108fa565b600085815260208120601f198616915b8281101561170a578886015182559484019460019091019084016116eb565b50858210156117285787850151600019600388901b60f8161c191681555b5050505050600190811b01905550565b818103818111156102d057634e487b7160e01b600052601160045260246000fd5b634e487b7160e01b600052603160045260246000fdfea2646970667358221220e4f0f3e7601f105547802e8589622f681e8203b9ef28ee42491c44d4e93e294c64736f6c63430008190033",
        "linkReferences": {}
    },
    "methodIdentifiers": {
        "approve(address,uint256)": "095ea7b3",
        "balanceOf(address)": "70a08231",
        "getApproved(uint256)": "081812fc",
        "isApprovedForAll(address,address)": "e985e9c5",
        "mint(address,uint256,string)": "d3fc9864",
        "name()": "06fdde03",
        "owner()": "8da5cb5b",
        "ownerOf(uint256)": "6352211e",
        "renounceOwnership()": "715018a6",
        "safeTransferFrom(address,address,uint256)": "42842e0e",
        "safeTransferFrom(address,address,uint256,bytes)": "b88d4fde",
        "setApprovalForAll(address,bool)": "a22cb465",
        "supportsInterface(bytes4)": "01ffc9a7",
        "symbol()": "95d89b41",
        "tokenByIndex(uint256)": "4f6ccce7",
        "tokenOfOwnerByIndex(address,uint256)": "2f745c59",
        "tokenURI(uint256)": "c87b56dd",
        "totalSupply()": "18160ddd",
        "transferFrom(address,address,uint256)": "23b872dd",
        "transferOwnership(address)": "f2fde38b"
    },
    "id": 22
}