{
    "abi": [
        {
            "type": "constructor",
            "inputs": [
                {
                    "name": "_totalSlots",
                    "type": "uint256",
                    "internalType": "uint256"
                }
            ],
            "stateMutability": "nonpayable"
        },
        {
            "type": "function",
            "name": "bookSlot",
            "inputs": [
                {
                    "name": "slotId",
                    "type": "uint256",
                    "internalType": "uint256"
                }
            ],
            "outputs": [],
            "stateMutability": "nonpayable"
        },
        {
            "type": "function",
            "name": "checkOut",
            "inputs": [
                {
                    "name": "slotId",
                    "type": "uint256",
                    "internalType": "uint256"
                }
            ],
            "outputs": [],
            "stateMutability": "nonpayable"
        },
        {
            "type": "function",
            "name": "getAllSlots",
            "inputs": [],
            "outputs": [
                {
                    "name": "",
                    "type": "tuple[]",
                    "internalType": "struct TurfSlotBookingSystem.Slot[]",
                    "components": [
                        {
                            "name": "slotId",
                            "type": "uint256",
                            "internalType": "uint256"
                        },
                        {
                            "name": "status",
                            "type": "uint8",
                            "internalType": "enum TurfSlotBookingSystem.AvailabilityStatus"
                        },
                        {
                            "name": "bookingOwner",
                            "type": "address",
                            "internalType": "address"
                        },
                        {
                            "name": "bookedAt",
                            "type": "uint256",
                            "internalType": "uint256"
                        }
                    ]
                }
            ],
            "stateMutability": "view"
        },
        {
            "type": "function",
            "name": "getSlotsByUser",
            "inputs": [],
            "outputs": [
                {
                    "name": "",
                    "type": "tuple[]",
                    "internalType": "struct TurfSlotBookingSystem.Slot[]",
                    "components": [
                        {
                            "name": "slotId",
                            "type": "uint256",
                            "internalType": "uint256"
                        },
                        {
                            "name": "status",
                            "type": "uint8",
                            "internalType": "enum TurfSlotBookingSystem.AvailabilityStatus"
                        },
                        {
                            "name": "bookingOwner",
                            "type": "address",
                            "internalType": "address"
                        },
                        {
                            "name": "bookedAt",
                            "type": "uint256",
                            "internalType": "uint256"
                        }
                    ]
                }
            ],
            "stateMutability": "view"
        },
        {
            "type": "function",
            "name": "getStatus",
            "inputs": [
                {
                    "name": "slotId",
                    "type": "uint256",
                    "internalType": "uint256"
                }
            ],
            "outputs": [
                {
                    "name": "",
                    "type": "uint8",
                    "internalType": "enum TurfSlotBookingSystem.AvailabilityStatus"
                },
                {
                    "name": "",
                    "type": "address",
                    "internalType": "address"
                }
            ],
            "stateMutability": "view"
        },
        {
            "type": "function",
            "name": "slots",
            "inputs": [
                {
                    "name": "",
                    "type": "uint256",
                    "internalType": "uint256"
                }
            ],
            "outputs": [
                {
                    "name": "slotId",
                    "type": "uint256",
                    "internalType": "uint256"
                },
                {
                    "name": "status",
                    "type": "uint8",
                    "internalType": "enum TurfSlotBookingSystem.AvailabilityStatus"
                },
                {
                    "name": "bookingOwner",
                    "type": "address",
                    "internalType": "address"
                },
                {
                    "name": "bookedAt",
                    "type": "uint256",
                    "internalType": "uint256"
                }
            ],
            "stateMutability": "view"
        },
        {
            "type": "function",
            "name": "totalSlots",
            "inputs": [],
            "outputs": [
                {
                    "name": "",
                    "type": "uint256",
                    "internalType": "uint256"
                }
            ],
            "stateMutability": "view"
        },
        {
            "type": "event",
            "name": "SlotBooked",
            "inputs": [
                {
                    "name": "slotId",
                    "type": "uint256",
                    "indexed": false,
                    "internalType": "uint256"
                },
                {
                    "name": "by",
                    "type": "address",
                    "indexed": false,
                    "internalType": "address"
                }
            ],
            "anonymous": false
        },
        {
            "type": "event",
            "name": "SlotCheckedOut",
            "inputs": [
                {
                    "name": "slotId",
                    "type": "uint256",
                    "indexed": false,
                    "internalType": "uint256"
                }
            ],
            "anonymous": false
        }
    ],
    "bytecode": {
        "object": "0x608060405234801561001057600080fd5b506040516109fb3803806109fb83398101604081905261002f916100ed565b60018181555b8181116100e65760408051608081019091528181526020810160008152600060208083018290526040928301829052848252818152919020825181559082015160018083018054909160ff1990911690838181111561009657610096610106565b021790555060408201516001820180546001600160a01b0390921661010002610100600160a81b0319909216919091179055606090910151600290910155806100de8161011c565b915050610035565b5050610143565b6000602082840312156100ff57600080fd5b5051919050565b634e487b7160e01b600052602160045260246000fd5b60006001820161013c57634e487b7160e01b600052601160045260246000fd5b5060010190565b6108a9806101526000396000f3fe608060405234801561001057600080fd5b506004361061007d5760003560e01c8063387dd9e91161005b578063387dd9e9146100c65780635c622a0e1461011957806360787c9a1461013a5780636285bfcf1461014f57600080fd5b806319159e6e146100825780631bd2eeee1461009757806332651906146100aa575b600080fd5b6100956100903660046106b5565b610157565b005b6100956100a53660046106b5565b610279565b6100b360015481565b6040519081526020015b60405180910390f35b6101096100d43660046106b5565b600060208190529081526040902080546001820154600290920154909160ff8116916101009091046001600160a01b03169084565b6040516100bd9493929190610706565b61012c6101273660046106b5565b61036c565b6040516100bd929190610735565b6101426103ca565b6040516100bd919061075b565b610142610582565b8060008111801561016a57506001548111155b61018f5760405162461bcd60e51b8152600401610186906107d1565b60405180910390fd5b8160008082815260208190526040902060019081015460ff16908111156101b8576101b86106ce565b146102055760405162461bcd60e51b815260206004820152601760248201527f536c6f7420697320616c726561647920626f6f6b65642e0000000000000000006044820152606401610186565b60008381526020818152604091829020600180820180546001600160a81b031916336101008102919091179092179055426002909201919091558251868152918201527f3b8ce702eda06485c7aabdb0c387135b1dd082863c1d289161e2c08de361e38c91015b60405180910390a1505050565b8060008111801561028c57506001548111155b6102a85760405162461bcd60e51b8152600401610186906107d1565b600082815260208190526040902060010154829061010090046001600160a01b031633146103185760405162461bcd60e51b815260206004820152601a60248201527f536c6f74206973206e6f7420626f6f6b656420627920796f752e0000000000006044820152606401610186565b6000838152602081815260408083206001810180546001600160a81b03191690556002019290925590518481527eddf0c82e94702d6a10151fc0d8ea15f24bc1eaa5913f43717006f6e8272fe8910161026c565b6000808260008111801561038257506001548111155b61039e5760405162461bcd60e51b8152600401610186906107d1565b50505060009081526020819052604090206001015460ff8116916101009091046001600160a01b031690565b6060600060015b600154811161042157600081815260208190526040902060010154336101009091046001600160a01b03160361040f578161040b81610815565b9250505b8061041981610815565b9150506103d1565b5060008167ffffffffffffffff81111561043d5761043d61082e565b60405190808252806020026020018201604052801561048f57816020015b60408051608081018252600080825260208083018290529282018190526060820152825260001990920191018161045b5790505b509050600060015b600154811161057957600081815260208190526040902060010154336101009091046001600160a01b031603610567576000818152602081815260409182902082516080810190935280548352600180820154919284019160ff1690811115610502576105026106ce565b6001811115610513576105136106ce565b8152600182015461010090046001600160a01b03166020820152600290910154604090910152835184908490811061054d5761054d610844565b6020026020010181905250818061056390610815565b9250505b8061057181610815565b915050610497565b50909392505050565b6060600060015467ffffffffffffffff8111156105a1576105a161082e565b6040519080825280602002602001820160405280156105f357816020015b6040805160808101825260008082526020808301829052928201819052606082015282526000199092019101816105bf5790505b50905060015b60015481116106af576000818152602081815260409182902082516080810190935280548352600180820154919284019160ff169081111561063d5761063d6106ce565b600181111561064e5761064e6106ce565b815260018281015461010090046001600160a01b031660208301526002909201546040909101528390610681908461085a565b8151811061069157610691610844565b602002602001018190525080806106a790610815565b9150506105f9565b50919050565b6000602082840312156106c757600080fd5b5035919050565b634e487b7160e01b600052602160045260246000fd5b6002811061070257634e487b7160e01b600052602160045260246000fd5b9052565b8481526080810161071a60208301866106e4565b6001600160a01b039390931660408201526060015292915050565b6040810161074382856106e4565b6001600160a01b039290921660209190910152919050565b602080825282518282018190526000919060409081850190868401855b828110156107c45781518051855286810151610796888701826106e4565b50808601516001600160a01b0316858701526060908101519085015260809093019290850190600101610778565b5091979650505050505050565b60208082526014908201527329b637ba103237b2b9903737ba1032bc34b9ba1760611b604082015260600190565b634e487b7160e01b600052601160045260246000fd5b600060018201610827576108276107ff565b5060010190565b634e487b7160e01b600052604160045260246000fd5b634e487b7160e01b600052603260045260246000fd5b8181038181111561086d5761086d6107ff565b9291505056fea26469706673582212202205920f8c58e61ec273c59143d215158cc71ffc83ed7e5ff54ccc5bf0a5c1f064736f6c63430008190033",
        "linkReferences": {}
    },
    "methodIdentifiers": {
        "bookSlot(uint256)": "19159e6e",
        "checkOut(uint256)": "1bd2eeee",
        "getAllSlots()": "6285bfcf",
        "getSlotsByUser()": "60787c9a",
        "getStatus(uint256)": "5c622a0e",
        "slots(uint256)": "387dd9e9",
        "totalSlots()": "32651906"
    },
    "id": 20
}